{
  "contractName": "Demo",
  "abi": [
    {
      "anonymous": false,
      "inputs": [
        {
          "indexed": false,
          "internalType": "string",
          "name": "message",
          "type": "string"
        }
      ],
      "name": "Echo",
      "type": "event"
    },
    {
      "constant": false,
      "inputs": [
        {
          "internalType": "string",
          "name": "message",
          "type": "string"
        }
      ],
      "name": "echo",
      "outputs": [],
      "payable": false,
      "stateMutability": "nonpayable",
      "type": "function"
    }
  ],
  "bytecode": "0x608060405234801561001057600080fd5b50610145806100206000396000f3fe608060405234801561001057600080fd5b506004361061002b5760003560e01c8063f15da72914610030575b600080fd5b6100a76004803603602081101561004657600080fd5b810190808035906020019064010000000081111561006357600080fd5b82018360208201111561007557600080fd5b8035906020019184600183028401116401000000008311171561009757600080fd5b90919293919293905050506100a9565b005b7fdb84d7c006c4de68f9c0bd50b8b81ed31f29ebeec325c872d36445c6565d757c828260405180806020018281038252848482818152602001925080828437600081840152601f19601f820116905080830192505050935050505060405180910390a1505056fea265627a7a723158200fcb94b759285b010af6460feddacb7975391ae5ce026f24e5321462115f40d664736f6c63430005100032",
  "source": "pragma solidity >=0.5.8;\n\ncontract Demo {\n    event Echo(string message);\n\n    function echo(string calldata message) external {\n        emit Echo(message);\n    }\n}\n",
  "sourcePath": "/home/c0pp3rsc3ew3r/repos/truffle/contracts/hello.sol",
  "compiler": {
    "name": "solc",
    "version": "0.5.16+commit.9c3226ce.Emscripten.clang"
  },
  "schemaVersion": "3.4.11",
  "updatedAt": "2022-12-27T13:43:10.575Z",
  "networkType": "ethereum",
  "devdoc": {
    "methods": {}
  },
  "userdoc": {
    "methods": {}
  }
}